:020000040800F2
:10000000D08000205D020008595700088D44000888
:100010005557000805120008296300080000000079
:100020000000000000000000000000009D0100082A
:10003000E715000800000000F9010008F957000862
:1000400077020008770200087702000877020008AC
:10005000770200087702000877020008770200089C
:10006000770200087702000877020008770200088C
:10007000770200086D140008770200087D1400085C
:100080008D1400089D1400089510000877020008E0
:10009000770200087702000877020008770200085C
:1000A000770200087702000877020008770200084C
:1000B000770200087702000877020008770200083C
:1000C000770200087702000877020008770200082C
:1000D0007702000895610008C561000877020008F2
:1000E000770200087702000877020008770200080C
:1000F00077020008770200087702000877020008FC
:1001000077020008770200087702000877020008EB
:10011000355A00087702000877020008E158000805
:10012000AD140008BD140008CD14000877020008C3
:1001300077020008770200087702000877020008BB
:1001400077020008770200087702000877020008AB
:10015000770200087702000877020008F9610008BA
:10016000770200087702000877020008770200088B
:1001700077020008770200087702000800000000FC
:100180007702000877020008DFF80CD000F0FCFCD2
:100190000048004735AD0008D08000202C4B19687E
:1001A0000868B0E8F04F80F30988BFF36F8F4FF015
:1001B000000080F3118870470000000008480068C4
:1001C000006880F308884FF0000080F3148862B65E
:1001D00061B6BFF34F8FBFF36F8F00DF00BF00BF6B
:1001E00008ED00E0DFF80C00016841F470010160E7
:1001F000704700BF88ED00E0EFF30980BFF36F8F19
:10020000134B1A681EF0100F08BF20ED108A20E96A
:10021000F04F106009B44FF0500080F31188BFF325
:100220004F8FBFF36F8F0DF023FE4FF0000080F370
:10023000118809BC19680868B0E8F04F1EF0100F6B
:1002400008BFB0EC108A80F30988BFF36F8F704746
:10025000D4110020EFF30580704700000648804766
:1002600006480047FEE7FEE7FEE7FEE7FEE7FEE79B
:10027000FEE7FEE7FEE7FEE7C55800088901000833
:100280002DE9F05F0546002092469B4688460646CB
:10029000814640241BE0284641464746224600F05E
:1002A000EEFA53465A46C01A914110D311461846E9
:1002B000224600F0D5FA2D1A67EB01084F46224678
:1002C0000120002100F0CCFA17EB00094E41201E5E
:1002D000A4F10104DFDC484631462A464346BDE826
:1002E000F09F2DE9F0410024061B254671F1000620
:1002F00005DA01240027D0EB070067EB0101161E89
:1003000073F1000605DA0027D2EB0702012567EB3F
:100310000303FFF7B5FF86460E4617469C46AC42E0
:1003200004D00025D0EB050E65EB010624B10020BA
:10033000D2EB000760EB030C704631463A46634649
:10034000BDE8F08140EA01039B0703D009E008C93A
:10035000121F08C0042AFAD203E011F8013B00F88A
:10036000013B521EF9D27047D2B201E000F8012BD6
:10037000491EFBD270470022F6E710B513460A4625
:1003800004461946FFF7F0FF204610BD30B505467C
:100390002A460B4612F8010B13F8014B08B1A04294
:1003A000F8D01CB1002802D06D1CF1E7284630BD02
:1003B00010B5044604E00B7800F8013B03B1491C7A
:1003C000521EF8D2204610BD421C10F8011B002915
:1003D000FBD1801A704730B504460020034600E088
:1003E0005B1C934203D2E05CCD5C401BF8D030BD77
:1003F00070B50F4D00B92868002412E00A4602E0EB
:100400009E4203D0521C1378002BF9D1DAB222435A
:1004100005D02BB124B1002100F8011B04E00446F3
:10042000401C0678002EE9D12860204670BD0000EF
:10043000541200202DE9FE4F804681EA0300C00FD0
:100440000C46009021F0004123F00045B8EB02007B
:10045000A94105D24046214690461C460B4602461D
:1004600023F00040104347D0270DC7F30A00C3F321
:100470000A510290401A019040286BDAC3F313002E
:1004800040F4801B0098924620B10023D2EB030A6F
:1004900063EB0B0B01985946C0F14002504600F047
:1004A000DFF906460D4650465946019A00F0F7F925
:1004B00010EB08006141002487EA115284EAE773D7
:1004C0001A4340D0009A62B3019A012A4FEA0752B8
:1004D00015DC001B61EB02014FF0004202EA0752FB
:1004E000CDE90042001C41F5801132462B4600F058
:1004F0007DFA03B0BDE8F08F40462146F9E7001BC6
:1005000061EB0201001C41F5801300185B412018CB
:10051000A2F5001747EB030140EAD570B6196D410B
:1005200011E06D084FEA360645EAC0754FEA0752FA
:10053000001B61EB0201001C41F5801149084FEAE4
:1005400030000019514132462B4603B0BDE8F04F50
:1005500000F03DBA0098012240000023D0EB0202D7
:1005600063EBE073009821464FEAE074B8EB0000BB
:1005700061EB0401E9E783F000435BE781F00041B0
:1005800058E72DE9FE4F81EA030404F0004421F00E
:10059000004100944FF0000B23F0004350EA0104A7
:1005A0005ED052EA03045BD0C3F30A54C1F30A5588
:1005B0002C44A4F2F3340194A0FB0254C1F31301C0
:1005C00041F48011C3F3130343F4801301FB02448D
:1005D00000FB034E840A970A44EA815447EA835792
:1005E000A4FB076802958D0A05FB07854FEA932C4B
:1005F00004FB0C542705029D4FEA065847EA1637BC
:10060000B5EB08056EEB070C870E920E47EA8117D3
:1006100042EA8312A7FB0201B6EB0B0164EB000474
:100620002B0D43EA0C335E1844EB1C50DA4651465E
:10063000E7FB0201C5F313044FEA0B3343EA1453FB
:100640004FEA0432019C43EA0603A4F10C0402942D
:10065000009CCDE900B400F0C9F903B0BDE8F08F0B
:1006600000200146F9E72DE9F04D81EA030404F08A
:10067000004B21F0004514464FF0000A23F00041E2
:1006800050EA050220D054EA01021DD0C5F30A57F2
:100690000246C5F31303C1F31300C1F30A5640F435
:1006A000801543F48013A7EB0608101BD64608F20A
:1006B000FD3873EB050002D308F1010801E0921840
:1006C0005B41B8F1000F03DA00200146BDE8F08D70
:1006D00000204FF48011064684460EE0171B73EB92
:1006E000050705D3121B63EB050306434CEA010C17
:1006F00049084FEA300092185B4150EA0107EDD1FA
:1007000052EA030012D082EA040083EA050108439A
:1007100005D0101BAB4106D20122002306E00022C7
:100720004FF0004302E06FF0010253101AEB060095
:100730004CEB085110EB0A0041EB0B01BDE8F04D0A
:1007400000F045B90EB5C10F80EAE0700844CA0751
:10075000002140F233438DE80E000A460B4600F0BC
:1007600045F903B000BD70B5C1F30A5201F0004570
:100770000024C1F3130140F2FF3341F480119A4287
:1007800001DA002070BD40F233439A42A2F23342B4
:1007900003DC524200F073F800E090402C43F1D0AB
:1007A000404270BD00F0004230F000400AD0C10D60
:1007B00001F56071C0F3160042EA0151C20840071A
:1007C00011437047002001467047000030B5041EF9
:1007D00071F1000404DB4FF00044404264EB01017E
:1007E000141E73F1000405DB1C464FF00043524217
:1007F00063EB0403994208BF904230BD01F000430F
:1008000030B421F0004150EA010206D00A0DA2F5F1
:100810006072C1F31301002A02DC30BC0020704773
:10082000440F44EAC104C100E01830BC00EBC250E0
:1008300000F096B830B50B46014600202022012476
:1008400009E021FA02F59D4205D303FA02F5491B9E
:1008500004FA02F52844151EA2F10102F1DC30BDB4
:10086000202A04DB203A00FA02F100207047914070
:10087000C2F1200320FA03F3194390407047202A65
:1008800004DB203A21FA02F00021704721FA02F33A
:10089000D040C2F120029140084319467047202AF7
:1008A00006DBCB17203A41FA02F043EAE07306E098
:1008B00041FA02F3D040C2F12002914008431946A8
:1008C000704700000FB4002300B589B00CA9009157
:1008D0000B996FF00042CB601E4B06931E4B0793A3
:1008E0000423CDE901321D4A089202466B460020DE
:1008F00000F0F6F909B05DF814FB70B586B0064655
:100900004FF0FF300091CDE90101002015460C4663
:1009100004903246694604A8FFF7D4FF02460498C3
:10092000211825B108B1084600E020462860049847
:1009300000280DD0002A02DD0098884208D0081B4C
:100940000094CDE901043246694604A8FFF7BAFFD6
:1009500006B070BD190F0008370F0008AD0B000876
:100960000029A8BF7047401C490008BF20F00100C3
:10097000704710B4B0FA80FC00FA0CF050EA0104A1
:1009800004BF10BC704749B1CCF1200421FA04F433
:1009900011FA0CF118BF012121430843A3EB0C010C
:1009A000CB1D4FEA00614FEA102042BF002010BC6F
:1009B000704700EBC35010440029A4BF10BC70471F
:1009C000401C490008BF20F0010010BC704710B562
:1009D000141E73F1000408DA401C41F10001921862
:1009E0005B411A4301D120F0010010BD2DE9F04D0B
:1009F00092469B4611B1B1FA81F202E0B0FA80F260
:100A000020329046FFF72CFF04460F4640EA0A00CA
:100A100041EA0B0153465A46084313D0114653EAA4
:100A2000010019D0C8F140025046FFF728FF0546E3
:100A30000E46504659464246FFF712FF084305D07E
:100A4000012004E020463946BDE8F08D0020054332
:100A500046EAE0762C4337430A986305E40AA0EBA4
:100A600008000022FD0A44EA47540A3002D500205B
:100A70000146E9E7010510196941DDE9084500195A
:100A80006941BDE8F04DA2E770B521F00043034392
:100A90000CD0C1F30A550024D5EB040564EB040324
:100AA000D617AD1AB34102DB0020014670BD2018F5
:100AB00041EB025170BD2DE9F04D00231A461B1A7F
:100AC0008A4103DB00200146BDE8F08DC1F30A52E4
:100AD000C1F3130141F480154FF0000BD10702D18F
:100AE00000186D41521E0027044640F2FF1138469F
:100AF00001EB620A3E468046024600204FF4801118
:100B0000FFF7BDFEC2197141BB1846EB0100B4EB03
:100B1000030C75EB000C04D3E41A65EB00051746D3
:100B20000E46241908F101006D4180463428E3DDAA
:100B3000F91946EB0600091BA84103D24FF0FF321A
:100B4000134601E0002213461BEB070046EB0A5157
:100B5000BDE8F04DFFF73BBFC1F30A52C1F31301EB
:100B600040F2FF3341F480119A4202DA002001463C
:100B7000704740F233439A42A2F2334202DC5242BF
:100B8000FFF77DBEFFF76CBE064C074D06E0E06840
:100B900040F0010394E8070098471034AC42F6D3C4
:100BA000FFF7F6FAECFF00080C000108C0B24FF4A2
:100BB000F05100F0D1B900002DE9FF4F087883B063
:100BC0009946FF2805D0491C2D2804D00024002078
:100BD00008E000200BE00124F9E700EB800003EBC4
:100BE0004000491C0B78FF2BF7D104B14042002391
:100BF0000293147819461D462D2C01D02B2C04D1BC
:100C0000521C2D2C13D000240294AA461478FF2CD9
:100C10000FD00A25A3FB057801FB05814FF0000CDE
:100C200003FB0C11521CE3194AEB0101EEE701240E
:100C3000EAE7814453EA010002D019F5C87F06DAD9
:100C400003980021C0E9001107B0BDE8F08F00252E
:100C5000AE4E2F46DFF8B882184600F091F9CDE984
:100C60000001B9F1000002DAC9F1000400E0044615
:100C70000023A74A1AEB030B42EB045A12E0E007E9
:100C800007D02A46334638464146FFF77AFC0746E6
:100C900088462A46334610461946FFF772FC054639
:100CA0000E466410002CEAD1DDE90001B9F1000F15
:100CB0005A46534606DAFFF7D6FC3A464346FFF754
:100CC000D2FC05E0FFF75DFC3A464346FFF759FCCE
:100CD000029A0AB181F00041039AC2E90001B3E728
:100CE0002DE9FF4F1F468DB0D7E901464FF0FF3881
:100CF0002E2045464FF000090B90B9696D1C0E98E7
:100D00008847396A824688470028F6D1BAF1FF3F02
:100D10000AD024F4D064002E11DDBAF12B0F08D0D4
:100D2000BAF12D0F0BD102E0404611B08DE744F42B
:100D30008064B9696D1C0E9888478246761E6946A4
:100D4000600501D52D2000E02B208DF8000001F179
:100D5000010B0DF1200809E0B9696D1C0E98884758
:100D600082460F9844F40074761E0560002E02DD62
:100D7000BAF1300FF0D00B998A453ED144F080048F
:100D800006E00F99681CA9F1010944F40074086099
:100D9000B9696D1C761E0E98884782463028F0D0BF
:100DA0002BE00B998A4505D1200603D444F080043A
:100DB000761E18E0504606F080FF08B30DF11301CF
:100DC000761E44F400748B4508D2AAF130000BF86B
:100DD000010B200607D5A9F1010003E0200602D48B
:100DE00009F101008146A00502D50F99681C086031
:100DF000B9696D1C0E9888478246002ED1DC53E0FD
:100E0000002E51DDBAF1650F02D0BAF1450F4BD17A
:100E1000A00549D5B9696D1C24F44074761E0E985E
:100E200088478246002E0CDD2B2804D0BAF12D0F06
:100E300007D144F48074B9696D1C0E9888478246C6
:100E4000761EE00501D52D2100E02B2108F8011BBD
:100E5000CDF82C8021E00DF12901761E44F40074B8
:100E600088450CD2AAF1300010F0FF0088F800008D
:100E700002D10B99884509D908F1010806E0E0057F
:100E800001D5244801E042F20F708146B9696D1C1A
:100E90000E98884782460F980560002E04DD504664
:100EA00006F00BFF0028D6D1F9690E988847FF207D
:100EB0008BF8000088F800000020069007904B4651
:100EC0006A4608A906A8FFF777FEA00502D46FF0CE
:100ED00001002AE714F0240F0AD0E00714D1DDE95D
:100EE00006123868031D3B600068C0E900120BE081
:100EF000DDE90601FFF782FC0146E00704D138680E
:100F0000021D3A600068016028460EE700001440A8
:100F10000000F03FF1D8FFFF426842B1016811F8CC
:100F2000013B23B1521EC0E900121846704701214F
:100F3000C160881E704742685AB1C368016843B9EE
:100F400083688B4205D0491E521CC0E90012002064
:100F500070474FF0FF3070477F2801D9002208E02A
:100F6000064A02EB5002C007127800D1120902F0C3
:100F70000F020120904008407047000068FD000803
:100F80000EB540F2334202920022CDE90022134610
:100F9000FFF72CFD03B000BD70B58C1810F8015B95
:100FA00015F0070301D110F8013B2A1106D110F802
:100FB000012B03E010F8016B01F8016B5B1EF9D106
:100FC0002B0705D40023521E0DD401F8013BFAE78C
:100FD00010F8013BCB1A921C03E013F8015B01F8F7
:100FE000015B521EF9D5A142D8D3002070BD70B567
:100FF0000546AC6B206C00F0500050BB206C40F4F8
:10100000007020642068806800F04050E8B9207EBD
:10101000D8B92068C06A00F4700020B120688068E8
:1010200000F4806088B92068406820F020002168C2
:101030004860206C20F480702064206C00F48050A4
:1010400018B9206C40F001002064204600F0A2FB9B
:101050000BE0206C00F0100018B1204600F09CFB63
:1010600003E0A06BC16C2846884770BD70B505468B
:10107000AC6B40202064606C40F00400606420464B
:1010800000F08AFB70BD70B50446A56B284600F0E1
:1010900082FB70BD10B5024800F07FFB10BD000060
:1010A0006012002055494A6822F440324A604A687A
:1010B00043681A434A600268526822F480720368E7
:1010C0005A6002685368026943EA022203685A6060
:1010D0000268526822F0407203685A6002685268DF
:1010E00083681A4303685A600268926822F40062B7
:1010F00003689A6002689268C3681A4303689A603A
:101100003F4B826A9A4218D00268926822F070625D
:1011100003689A6002689268836A1A4303689A6057
:101120000268926822F0405203689A6002689268EE
:10113000C36A1A4303689A600BE00268926822F05F
:10114000706203689A600268926822F040520368F5
:101150009A600268926822F0020203689A6002684C
:101160009368027E43EA420203689A602022125C7E
:10117000A2B10268526842F4006203685A600268D1
:10118000526822F4604203685A6002685368426AF7
:10119000521E43EA423203685A6005E00268526810
:1011A00022F4006203685A600268D26A22F4700274
:1011B0000368DA620268D36A828B521E43EA0252E3
:1011C0000368DA620268926822F4007203689A6027
:1011D0000268936890F8302043EA422203689A60DC
:1011E0000268926822F4806203689A6002689368D9
:1011F000426943EA822203689A60704700230140F3
:101200000100000F00BFFEE70EB50848011F0A1FCE
:10121000CDE900210290A0F6AC70131F00F5FA6230
:10122000D0F8C01F09F0DCFE0EBD000064110020E4
:1012300010B5002400F034F804E0601CC4B20120B2
:1012400007F0AAFD00F01AF808B1642CF5DB642C55
:1012500001DB012010BD002404E0601CC4B20120A9
:1012600007F09AFD00F00AF808B9642CF5DB642C4D
:1012700001DB0120EEE70020ECE7000010B50121C2
:10128000014801F001F810BD0004024010B5044609
:1012900022460121014800F0FFFF10BD000402407A
:1012A00000B585B014216846FFF765F8012000906D
:1012B0000020019002906946024800F0EBFE05B064
:1012C00000BD00000004024000B585B0142168464E
:1012D000FFF751F801200090019000200290039048
:1012E0006946024800F0D6FE05B000BD0004024089
:1012F00000B587B0142102A8FFF73DF800BF002019
:1013000001901148006840F001000F49086008464C
:10131000006800F00100019000BF00BF01200290B2
:101320000390002004900220059002A9074800F0D5
:10133000B1FE01221146054800F0AEFF00F079F839
:10134000FFF776FF07B000BD3038024000040240CE
:1013500010B5002404E0601CC4B2012007F01CFD9D
:10136000FFF78CFF08B1642CF5DB002404E0601C5F
:10137000C4B2012007F010FDFFF780FF08B9642C0C
:10138000F5DB282007F008FDFFF778FF08B1012002
:1013900010BD0020FCE770B50024002506E06006C3
:1013A000040EFFF7D5FF0443681CC5B2082DF6DB19
:1013B000204670BD7CB5054600F03BF8FFF738FFCE
:1013C00090BB002405E0FFF7E6FF0DF80400601C69
:1013D000C4B2052CF7DB9DF800009DF8011008440D
:1013E0009DF8021008449DF8031008449DF804106D
:1013F00088421CD19DF8000028719DF8030000EE82
:10140000100AB8EE400A9DF8020000EE900AF8EECD
:10141000600AB2EE041A00EE810AF2EE040A80EECF
:10142000201A85ED001A02E0FFE701207CBD0020B4
:10143000FCE710B5FFF748FF0020FFF727FF142057
:1014400000F021FE0120FFF721FF1E2007F0A4FC81
:1014500010BDFFF74DFF0BF01CFA044600BF07F06C
:10146000BFFCC83420460BF0FAF9F8E710B5024883
:1014700000F02AFC10BD0000601B002010B50248DF
:1014800000F022FC10BD0000C01B002010B5024877
:1014900000F01AFC10BD0000801C002010B50248AE
:1014A00000F012FC10BD0000E01C002010B5024846
:1014B00000F00AFC10BD0000A812002010B5024880
:1014C00000F002FC10BD0000401D002010B50248D5
:1014D00000F0FAFB10BD0000201C00200146087837
:1014E00010381823B0FBF3F20848805CC865032A63
:1014F00005D908686FF30900001D886503E00868D6
:101500006FF309008865886D7047000088EE000859
:10151000014600208A6A8B69CBB932B1012A0DD00D
:10152000022A03D0032A10D10EE000BFCB6A03F0D9
:101530008073B3F1807F00D1012007E0CB6AB3F163
:10154000C07F00D1012001E000E000BF34E08B69E2
:10155000B3F5005F1AD132B1012A07D0022A03D0B5
:10156000032A11D10AE000BF01200EE0CB6A03F08C
:101570008073B3F1807F00D1012006E0CB6AB3F124
:10158000C07F00D1012000E000BF15E032B1012A88
:1015900005D0022A04D0032A0CD103E000BF00BF0B
:1015A000012008E0CB6A03F08073B3F1807F00D1A3
:1015B000012000E000BF00BF704730B50468246818
:1015C00024F4802405682C60046863608468402CDF
:1015D00004D10468A2600468E16003E00468A160CB
:1015E0000468E26030BD704772B600BFFEE70BF0E2
:1015F00050F9044600BF07F06DF904F5FA7420466F
:101600000BF02DF9F7E7704738B50246002000903F
:1016100000BF92F83C00012801D1022038BD012012
:1016200082F83C0000BF0868092816D91068C06815
:101630000C780A3C04EB44050724AC40A043146832
:10164000E0600C780A3C04EB44048868A04014680D
:10165000E46820431468E06013E0106800690C78C7
:1016600004EB44050724AC40A043146820610C78C7
:1016700004EB44048868A04014682469204314687B
:1016800020614868072817D21068406B0C79641EE7
:1016900004EB84051F24AC40A043146860630888F1
:1016A00080B20C79641E04EB8404A0401468646B5F
:1016B00020431468606331E048680D2817D2106831
:1016C000006B0C79E41F04EB84051F24AC40A0439D
:1016D00014682063088880B20C79E41F04EB84044A
:1016E000A0401468246B20431468206316E010683F
:1016F000C06A0C790D3C04EB84051F24AC40A04368
:101700001468E062088880B20C790D3C04EB840414
:10171000A0401468E46A20431468E062194B1A4C34
:101720001068A04206D10868122803D1586840F416
:1017300080005860144C1068A0421CD10868102822
:1017400002D00868112816D1586840F4000058608B
:10175000086810280FD10D4800680D4CB0FBF4F05C
:1017600000EB80004000009002E00098401E0090D6
:1017700000980028F9D100BF002082F83C0000BF8B
:1017800000BF4BE700230140002001404000002043
:1017900040420F007047704770472DE9F041044602
:1017A00000250026206807682068D0F8048007F02C
:1017B000020508F0200695B38EB3206C00F01000EF
:1017C00018B9206C40F4007020642068806800F034
:1017D0004050E8B9207ED8B92068C06A00F4700093
:1017E00020B12068806800F4806088B92068406873
:1017F00020F0200021684860206C20F48070206474
:10180000206C00F4805018B9206C40F00100206476
:101810002046FFF7BFFF6FF012002168086007F055
:10182000040508F08006E5B3DEB3206C00F010007C
:1018300018B9206C40F4005020642068806800F4DF
:10184000401038BB2068806B00F4401020B1206845
:10185000806800F48060E8B92068406800F4806027
:10186000C0B92068806800F0405098B9207E88B9DF
:101870002068406820F0800021684860206C20F4D7
:1018800080502064206C00F4807018B9206C40F007
:10189000010020642046FFF7B6FE6FF00C002168BF
:1018A000086007F0010508F0400685B17EB12068A8
:1018B000006800F0010050B1206C40F480302064DA
:1018C000204600F04FF86FF001002168086007F033
:1018D000200508F080667DB176B1606C40F00200B2
:1018E00060646FF02000216808602046FFF754FF15
:1018F0006FF0200021680860BDE8F08170B50446F3
:1019000000250CB9012070BD1549A06A884200D09D
:1019100000BF206C30B9204600F026F8002060643B
:1019200084F83C00206C00F0100088B9206C20F492
:10193000885040F0020020642046FFF7B3FB0020EF
:101940006064206C20F0020040F00100206400E0A0
:10195000012500BF002084F83C0000BF2846D2E7E4
:101960000100000F7047000010B586B00446142136
:1019700001A8FEF700FD2D492068884253D100BF21
:10198000002000902A48006840F4807028490860D0
:101990000846006800F48070009000BF00BF00BFE0
:1019A0000020009022481438006840F001002049CF
:1019B000143908600846006800F00100009000BF7C
:1019C00000BF80200190032002900020039001A915
:1019D000184800F05FFB184818490860002048606C
:1019E000002116488160C1604FF480610161890067
:1019F0004161890081618911C1610902016200218F
:101A0000416200F081FA08B1FFF7EEFD00BF0B481C
:101A1000A063846300BF00220521122001F002FBB5
:101A2000122001F0EBFA06B010BD000000200140CA
:101A3000443802400000024010640240A812002016
:101A4000F8B504460D4616460020009000BF94F8F5
:101A50003C00012801D10220F8BD012084F83C009F
:101A600000BF2068806800F00100A0B9206880688D
:101A700040F0010021688860554800685549B0FB76
:101A8000F1F000EB4000009002E00098401E009052
:101A900000980028F9D12068806800F48070B0F5C3
:101AA000807F05D12068806820F48070216888607C
:101AB0002068806800F0010000287ED0206C40F291
:101AC0000161884340F4807020642068406800F41D
:101AD000806028B1206C20F4005040F480502064D5
:101AE000206C00F48050B0F5805F04D1606C20F071
:101AF0000600606401E00020606400BF002084F8FC
:101B00003C0000BF344F3548A16BC8633448A16B1B
:101B100008643448A16BC8646FF022002168086033
:101B20002068406840F080602168486020688068D4
:101B300040F4807021688860226802F14C013346CD
:101B40002A46A06B00F056FA786800F01F0018BB18
:101B500025492068884213D024492068884204D14E
:101B6000381D006800F01F0050B1214920688842EC
:101B70002BD11948001D006800F01F00102824D246
:101B80002068806800F04050F8B92068806840F014
:101B900080402168886018E013492068884214D189
:101BA0002068806800F0405078B92068806840F074
:101BB00080402168886008E0FFE7206C40F010005A
:101BC0002064606C40F001006064002044E7000085
:101BD0004000002040420F0000230140EF0F0008AA
:101BE000871000086D10000800200140002101400E
:101BF0000022014070B50446A56D00F053FB064677
:101C000094F83500022808D08020606500BF0020CD
:101C100084F8340000BF012070BD2068006820F007
:101C20001600216808602068406920F08000216863
:101C30004861206C08B9A06C28B12068006820F0C9
:101C40000800216808602068006820F00100216811
:101C5000086010E000F026FB801B05280BD920202F
:101C60006065032084F8350000BF002084F834004C
:101C700000BF0320D0E72068006800F001000028C2
:101C8000E8D194F85C103F208840A860012084F8D7
:101C9000350000BF002084F8340000BF00BFBBE760
:101CA000014691F83500022803D0802048650120C4
:101CB0007047052081F835000868006820F00100B1
:101CC0000A6810600020F3E7F8B504460020009091
:101CD0008C4800684FF41651B0FBF1F7A56D2E68E3
:101CE00094F85C1008208840304098B12068006863
:101CF00000F0040070B12068006820F00400216842
:101D0000086094F85C1008208840A860606D40F07E
:101D10000100606594F85C1001208840304068B193
:101D20002068406900F0800040B194F85C10012008
:101D30008840A860606D40F00200606594F85C1017
:101D400004208840304068B12068006800F002003C
:101D500040B194F85C1004208840A860606D40F0A9
:101D60000400606594F85C1010208840304078B31F
:101D70002068006800F0080050B394F85C10102050
:101D80008840A8602068006800F4802080B1206846
:101D9000006800F4002028B9206CC8B12046216CEE
:101DA000884715E0A06C98B12046A16C88470FE0E9
:101DB0002068006800F4807028B92068006820F06E
:101DC000080021680860206C10B12046216C88470B
:101DD00094F85C10202088403040002865D02068AE
:101DE000006800F0100000285FD094F85C102020FC
:101DF0008840A86094F83500052828D1206800683C
:101E000020F01600216808602068406920F08000FA
:101E100021684861206C08B9A06C28B1206800686E
:101E200020F008002168086094F85C103F2088408A
:101E3000A860012084F8350000BF002084F8340039
:101E400000BF206D10B12046216D8847F8BD206885
:101E5000006800F4802080B12068006800F4002051
:101E600028B9606C10B12046616C88471DE0E06BBA
:101E7000D8B12046E16B884717E02068006800F47D
:101E8000807068B92068006820F010002168086040
:101E9000012084F8350000BF002084F8340000BF22
:101EA000E06B10B12046E16B8847606D38B3606D20
:101EB00000F00100F0B1052084F8350020680068CA
:101EC00020F001002168086000BF0098401C0090CD
:101ED000B84200D905E02068006800F00100002841
:101EE000F3D100BF012084F8350000BF002084F842
:101EF000340000BFE06C10B12046E16C884700BFA1
:101F0000A4E70000400000202DE9F0410446002530
:101F100000F0C8F9074614B90120BDE8F081606AF5
:101F200000B100BF022084F8350000BF002084F813
:101F3000340000BF2068006820F0010021680860BC
:101F40000AE000F0AFF9C01B052805D92020606524
:101F5000032084F83500E0E72068006800F0010005
:101F60000028EED12068056821480540D4E9010128
:101F70000843E16808432169084361690843A1698E
:101F80000843E1690843216A08430543606A04285D
:101F900003D1D4E90B01084305432068056020689C
:101FA000456925F00705606A0543606A04280DD17C
:101FB000A06A0543E06A48B12046FFF7A9FA28B1B4
:101FC00040206065012084F83500A6E7206845615F
:101FD0002046FFF783FA064694F85C103F208840BD
:101FE000B06000206065012084F83500002094E78F
:101FF0003F8010F02DE9F04704460D4616461F4677
:102000004FF00008D4F8589000BF94F8340001282D
:1020100002D10220BDE8F087012084F8340000BF1F
:1020200094F83500012825D1022084F835000020DD
:1020300060653B46324629462046FFF7BEFA94F8D3
:102040005C103F208840C9F808002068006840F014
:10205000160021680860206C28B12068006840F0F4
:102060000800216808602068006840F001002168CD
:10207000086006E000BF002084F8340000BF4FF085
:1020800002084046C6E710B50446A0B206F06AFE54
:1020900010BD0000F8B502460B46002500240020C4
:1020A0000021D6E0012606FA01F51E6806EA0504BD
:1020B000AC4274D11E7906F00306012E04D01E79BD
:1020C00006F00306022E13D190684F000326BE408F
:1020D000B0434F00DE68BE40304390605068012638
:1020E0008E40B0431E79C6F300168E4030435060D8
:1020F0001E7906F00306032E09D0D0684F00032690
:10210000BE40B0434F009E68BE403043D0601E7951
:1021100006F00306022E13D1CF0802F1200656F86E
:1021200027004E07F70E0F26BE40B0434F07FF0EA5
:102130001E69BE403043CF0802F1200646F8270052
:1021400010684F000326BE40B0431E7906F0030618
:102150004F00BE40304310605E6806F44036002EEB
:1021600076D000BF002600963C4E366846F4804686
:102170003A4F3E603E46366806F48046009600BF01
:1021800000BF374E8F0856F827008E07370F0F26EF
:10219000BE40B043334EB24202D1002624E057E0A5
:1021A000314EB24201D101261EE0304EB24201D181
:1021B000022619E02E4EB24201D1032614E02D4E24
:1021C000B24201D104260FE02B4EB24201D10526C6
:1021D0000AE02A4EB24201D1062605E0284EB2425C
:1021E00001D1072600E008268F073F0FBE4030438D
:1021F0001B4E8F0846F82700224E3068A0435E68C9
:1022000006F4801606B120431E4E3060361D30683D
:10221000A0435E6806F4001606B12043194E361D31
:102220003060184E361F3068A0435E6806F40036F2
:1022300006B12043134E361F3060361F3068A0436E
:102240005E6806F4803606B120430E4E083E3060CC
:10225000491C1029FFF426AFF8BD000044380240A5
:10226000083801400000024000040240000802401B
:10227000000C02400010024000140240001802400E
:10228000001C0240083C0140024613690B400BB1A0
:10229000012000E0002070470AB1816101E00B04D9
:1022A00083617047014800687047000034000020D7
:1022B00070B504460CB9012070BD94F83D0028B9F2
:1022C000002084F83C00204600F04EFD242084F8D5
:1022D0003D002068006820F0010021680860206847
:1022E000006840F40040216808602068006820F41D
:1022F00000402168086000F0D1FF05465C49606835
:10230000884206D85B48854201D2012007E00020C0
:1023100005E05948854201D2012000E00020012853
:1023200000D1C9E75548B5FBF0F62068406820F0B9
:102330003F003043216848604D496068884201D8B9
:10234000701C07E04FF4967070434FF47A71B0FB45
:10235000F1F0401C2168096A21F03F01084321681F
:10236000086243496068884214D8681E6168490061
:10237000B0FBF1F0401CC0F30B00042801D2042094
:102380003DE0681E61684900B0FBF1F0401CC0F3FD
:102390000B0034E0A06838B9681E616801EB4101A8
:1023A000B0FBF1F0401C0AE0681E616801EBC1025D
:1023B00002EB0111B0FBF1F0401C40F48040C0F38F
:1023C0000B0008B901201AE0A06848B9681E6168CE
:1023D00001EB4101B0FBF1F0401CC0F30B000CE03D
:1023E000681E616801EBC10202EB0111B0FBF1F064
:1023F000401CC0F30B0040F4804040F400402168D2
:10240000C9694CF6FF72914308432168C861D4E959
:10241000070108432168096821F0C00108432168C9
:102420000860D4E9031008432168896848F2FF3244
:102430009143084321688860D4E905010843216875
:10244000C96821F0FF0108432168C860206800685E
:1024500040F001002168086000202064202084F8FA
:102460003D000020206384F83E0000BF24E7000008
:10247000A086010080841E0000093D0040420F003C
:102480002DE9F8430446894617469846089EFFF70B
:1024900009FF054694F83D0020287DD1192301222B
:1024A000B7492046009502F062FA10B10220BDE85B
:1024B000F88300BF94F83C00012801D10220F6E720
:1024C000012084F83C0000BF2068006800F0010093
:1024D00028B92068006840F0010021680860206881
:1024E000006820F4006021680860222084F83D0024
:1024F000102084F83E00002020646762A4F82A803F
:10250000608D20859F48E0622B4632464946204632
:1025100001F0DEFF08B10120C9E7208D88B900BFB6
:102520000020009020684069009020688069009039
:1025300000BF00BF2068006840F400702168086098
:1025400047E0208D012817D12068006820F48060C2
:102550002168086000BF002000902068406900905A
:1025600020688069009000BF00BF2068006840F4C8
:102570000070216808602CE0208D022818D12068A6
:10258000006820F48060216808602068006840F4DA
:1025900000602168086000E0EFE000BF00200090CC
:1025A00020684069009020688069009000BF10E0BA
:1025B0002068006840F480602168086000BF002047
:1025C000009020684069009020688069009000BFFA
:1025D00000BFC3E0208D03287ED8208D012815D1AF
:1025E0002A463146204602F09EFA08B101205EE7F5
:1025F00020680069616A0870606A401C6062208D12
:10260000401E2085608D401E6085A7E0208D022839
:102610002AD1334600225C492046009502F0A7F9F2
:1026200008B1012043E72068006840F40070216889
:10263000086020680069616A0870606A401C606216
:10264000208D401E2085608D401E608520680069B9
:10265000616A0870606A401C6062208D401E20859F
:10266000608D401E608579E0334600224649204651
:10267000009502F07CF908B1012018E72068006895
:1026800020F480602168086020680069616A087031
:10269000606A401C6062208D401E2085608D401E57
:1026A00060853346002238492046009502F05FF9E4
:1026B00008B10120FBE62068006840F40070216842
:1026C000086020680069616A0870606A401C606286
:1026D000208D401E208500E010E0608D401E60854A
:1026E00020680069616A0870606A401C6062208D21
:1026F000401E2085608D401E60852FE02A463146B1
:10270000204602F010FA08B10120D0E620680069E6
:10271000616A0870606A401C6062208D401E2085DE
:10272000608D401E608520684069C0F38000A8B1BC
:10273000208D032805D12068006820F4806021687E
:10274000086020680069616A0870606A401C606205
:10275000208D401E2085608D401E6085208D0028C4
:102760007FF438AF202084F83D00002084F83E003C
:1027700000BF84F83C0000BF99E6022097E6000005
:10278000020010000000FFFF040001002DE9F843E3
:102790000446894616461F46DDF82080FFF782FD75
:1027A000054694F83D0020287ED119230122514985
:1027B0002046009502F0DBF810B10220BDE8F88356
:1027C00000BF94F83C00012801D10220F6E7012067
:1027D00084F83C0000BF2068006800F0010028B9C0
:1027E0002068006840F001002168086020680068E7
:1027F00020F4006021680860212084F83D0010204A
:1028000084F83E000020206466626785608D208524
:102810003948E0622B4642464946204601F0F4FE24
:1028200008B10120CAE700BF00200090206840697D
:10283000009020688069009000BF00BF44E02A46F5
:102840004146204602F0B4F950B1206C042805D16D
:102850002068006840F40070216808600120ADE73E
:10286000606A007821680861606A401C6062608D5F
:10287000401E6085208D401E208520684069C0F381
:10288000800070B1208D60B1606A007821680861B5
:10289000606A401C6062608D401E6085208D401E15
:1028A00020852A46414600E022E0204602F02CF82E
:1028B00050B1206C042805D12068006840F40070F5
:1028C00021680860012079E7208D0028B7D12068B1
:1028D000006840F4007021680860202084F83D0002
:1028E000002084F83E0000BF84F83C0000BF65E78C
:1028F000022063E7020010000000FFFF2DE9FC5FEB
:1029000004460F4690469946DDE90CAB0E9EFFF754
:10291000C9FC054694F83D00202870D119230122F6
:10292000B5492046009502F022F810B10220BDE81A
:10293000FC9F00BF94F83C00012801D10220F6E77B
:10294000012084F83C0000BF2068006800F001000E
:1029500028B92068006840F00100216808602068FC
:10296000006820F4006021680860222084F83D009F
:10297000402084F83E0000202064C4F824A0A4F87D
:102980002AB0608D20859D48E0624B46424639461C
:102990002046CDE9006501F097FE08B10120C6E7A9
:1029A000208D88B900BF0020019020684069019007
:1029B00020688069019000BF00BF2068006840F473
:1029C00000702168086040E0208D012818D120683F
:1029D000006820F480602168086000BF002001903A
:1029E00020684069019020688069019000BF00BFA5
:1029F0002068006840F400702168086025E0F8E075
:102A0000208D022816D12068006820F4806021689B
:102A100008602068006840F400602168086000BF1A
:102A20000020019020684069019020688069019031
:102A300000BF0AE000BF00200190206840690190BB
:102A400020688069019000BF00BFC3E0208D03288B
:102A50007ED8208D012815D12A463146204602F025
:102A600062F808B1012062E720680069616A0870B5
:102A7000606A401C6062208D401E2085608D401E73
:102A80006085A7E0208D02282AD1334600225C49C8
:102A90002046009501F06BFF08B1012047E7206850
:102AA000006840F400702168086020680069616A6D
:102AB0000870606A401C6062208D401E2085608D19
:102AC000401E608520680069616A0870606A401C69
:102AD0006062208D401E2085608D401E608579E0FB
:102AE0003346002246492046009501F040FF08B1D8
:102AF00001201CE72068006820F4806021680860DD
:102B000020680069616A0870606A401C6062208DFC
:102B1000401E2085608D401E608533460022384966
:102B20002046009501F023FF08B10120FFE6206850
:102B3000006840F400702168086020680069616ADC
:102B40000870606A401C6062208D401E208500E095
:102B500010E0608D401E608520680069616A087021
:102B6000606A401C6062208D401E2085608D401E82
:102B700060852FE02A463146204601F0D4FF08B197
:102B80000120D4E620680069616A0870606A401C10
:102B90006062208D401E2085608D401E608520680B
:102BA0004069C0F38000A8B1208D032805D12068BA
:102BB000006820F480602168086020680069616A0C
:102BC0000870606A401C6062208D401E2085608D08
:102BD000401E6085208D00287FF438AF202084F8C7
:102BE0003D00002084F83E0000BF84F83C0000BF98
:102BF0009DE602209BE60000020010000000FFFF9F
:102C0000040001002DE9FC5F04460F4690469946FA
:102C1000DDE90CAB0E9EFFF745FB054694F83D0041
:102C200020287DD1192301224D492046009501F02D
:102C30009EFE10B10220BDE8FC9F00BF94F83C004E
:102C4000012801D10220F6E7012084F83C0000BFF2
:102C50002068006800F0010028B92068006840F092
:102C60000100216808602068006820F40060216885
:102C70000860212084F83D00402084F83E000020B8
:102C80002064C4F824A0A4F82AB0608D20853548BB
:102C9000E0624B46424639462046CDE9006501F0E8
:102CA000C3FD08B10120C6E731E02A46314620467F
:102CB00001F07EFF50B1206C042805D12068006827
:102CC00040F40070216808600120B4E7606A007871
:102CD00021680861606A401C6062208D401E20856A
:102CE000608D401E608520684069C0F3800070B12F
:102CF000208D60B1606A007821680861606A401CBC
:102D00006062208D401E2085608D401E6085208D74
:102D10000028CAD12A463146204601F0F5FD00E0E0
:102D20001CE050B1206C042805D12068006840F4F4
:102D300000702168086001207DE72068006840F489
:102D4000007021680860202084F83D00002084F88D
:102D50003E0000BF84F83C0000BF6CE702206AE739
:102D6000020010000000FFFF10B586B004461421D9
:102D700001A8FDF700FB4449206888422FD100BF1D
:102D8000002000904148006840F002003F49086080
:102D90000846006800F00200009000BF00BFC0209D
:102DA0000190122002900020039003200490042040
:102DB000059001A93648FFF76DF900BF002000908B
:102DC00032481030006840F400103049103108607B
:102DD0000846006800F40010009000BF51E02D4943
:102DE000206888424DD100BF00200090274800682D
:102DF00040F00400254908600846006800F004001F
:102E0000009000BF00BF00BF00200090084600688F
:102E100040F0010008600846006800F001000090E2
:102E200000BF00BF481501901220029000200390BF
:102E3000032004900420059001A91748FFF72AF900
:102E40004FF4807001901220029000200390032024
:102E500004900420059001A91048FFF71BF900BF5A
:102E60000020009009481030006840F40000074935
:102E7000103108600846006800F40000009000BFB0
:102E800000BF06B010BD00000054004030380240C2
:102E900000040240005C00400008024000000240C4
:102EA00003480068034909780844014908607047ED
:102EB000340000203C00002010B50D48006840F4AC
:102EC00000700B4908600846006840F480600860A4
:102ED0000846006840F480700860032000F0E0F8C5
:102EE0000F2000F007F800F05FF8002010BD000090
:102EF000003C02402DE9F04188B004460027B84666
:102F000000BF002001902348006840F020002149C4
:102F100008600846006800F02000019000BF00BF74
:102F200002A903A800F092F9069F1FB900F0B6F9B4
:102F3000054602E000F0B2F945001748B5FBF0F095
:102F4000A0F1010815481649086040F2E73114481D
:102F5000C160C0F80480002101618160816100F0DE
:102F600079FC064696B90E4800F0A8FC06466EB9F4
:102F7000372000F043F8102C07D2002221463720DA
:102F800000F050F80748046000E00126304608B021
:102F9000BDE8F0814038024040420F00001400407C
:102FA000A01D00203800002008B500BF00200090C0
:102FB0001148006840F480400F49086008460068E6
:102FC00000F48040009000BF00BF00BF00200090D0
:102FD000081F006840F08050091F0860084600681C
:102FE00000F08050009000BF00BF00220F21901E13
:102FF00000F018F808BD00004438024001460846B9
:1030000000280DDB00BF00BF00F01F0301229A4023
:1030100043099B0003F1E023C3F8002100BF00BF78
:1030200000BF70472DE9F05F80460D461646002729
:1030300003F0C6F9074639462A46334601F0070031
:10304000C0F1070ABAF1040F02D94FF0040A01E0F7
:10305000C0F1070AD14600F1040ABAF1070F02D203
:103060004FF0000A01E0A0F1030AD4464FF0010A34
:103070000AFA09FAAAF1010A0AEA020A0AFA0CFA99
:103080004FF0010B0BFA0CFBABF1010B0BEA030B3E
:103090004AEA0B042146404603F09AF9BDE8F09F46
:1030A00000BF00F00702064B19684FF6FF031940F6
:1030B000044B0B4343EA0221014B196000BF7047E8
:1030C0000CED00E00000FA0570B504460D460CB9A1
:1030D000012070BD5848006800F00700A84209D2DE
:1030E00055490D700846006800F00700A84201D05D
:1030F0000120EEE7207800F0020002281DD12078A0
:1031000000F00400042805D14C48006840F4E05069
:103110004A490860207800F00800082805D147488F
:10312000006840F46040454908604448006820F069
:10313000F000A168084341490860207800F00100D0
:10314000A8B36068012807D13C4808380068C0F37C
:103150004040B8B90120BCE76068022802D060682E
:10316000032807D1354808380068C0F3406048B9E3
:103170000120AEE7314808380068C0F3400008B9C4
:103180000120A6E72D48006820F00300616808438D
:103190002A490860FFF786F8064609E0FFF782F83B
:1031A000801B41F28831884202D9032091E707E071
:1031B0002248006800F00C006168B0EB810FEDD18F
:1031C0001D48006800F00700A84209D91A490D708F
:1031D0000846006800F00700A84201D0012078E707
:1031E000207800F00400042807D11448006820F477
:1031F000E050E168084311490860207800F00800B9
:10320000082808D10D48006820F46040216940EA90
:10321000C1000A49086000F061F808490968C1F373
:103220000311074A515CC840064908600648006817
:10323000FFF760FE00204CE7003C024008380240E7
:1032400090EE000840000020380000200F220260AD
:103250000D4A126802F0030242600B4A126802F043
:10326000F0028260084A126802F4E052C260064A24
:10327000126802F46042D2080261044A126802F045
:1032800007020A607047000008380240003C024014
:1032900001480068704700004000002000B5FFF7BB
:1032A000F7FF04490968C1F38221034A515CC84011
:1032B00000BD000008380240A0EE000800B5FFF78E
:1032C000E7FF04490968C1F34231034A515CC84031
:1032D00000BD000008380240A0EE00082DE9F047CC
:1032E000002400250026A1462548006800F00C00B7
:1032F00020B1042805D008283AD105E0DFF88490F1
:1033000039E0DFF8849036E01D48001F006800F0C7
:103310003F041B48001F006800F4800078B11A4881
:103320001749091F0968C1F38811A0FB0170014604
:10333000224600233846FCF7A3FF05460EE011485D
:103340000F49091F0968C1F38811A0FB01700146EC
:10335000224600233846FCF793FF05460848001F25
:103360000068C0F30140401C4600B5FBF6F902E0DE
:10337000DFF8109000BF00BF4846BDE8F0870000AE
:10338000083802400024F40000127A00F8B5044620
:103390000CB90120F8BD207800F00100002874D09D
:1033A000F948006800F00C0004280DD0F6480068C9
:1033B00000F00C00082813D1F348001F006800F447
:1033C0008000B0F5800F0BD1EF4808380068C0F3DB
:1033D0004040002859D06068002856D10120D9E724
:1033E00000BF6068B0F5803F08D1E7480838006842
:1033F00040F48030E449083908601EE06068B0F5A8
:10340000A02F0DD1E0480838006840F48020DE4944
:10341000083908600846006840F4803008600CE015
:10342000D9480838006820F48030D7490839086046
:103430000846006820F48020086000BF606890B1F2
:10344000FEF730FF054606E0FEF72CFF401B642820
:1034500001D903209EE7CC4808380068C0F34040FB
:103460000028F1D011E0FEF71DFF054606E0FEF74B
:1034700019FF401B642801D903208BE7C248083894
:103480000068C0F340400028F1D1207800F002002D
:1034900002285FD1BC48006800F00C0058B1BA485F
:1034A000006800F00C0008281CD1B748001F006815
:1034B00000F48000B0B9B44808380068C0F3400098
:1034C00020B1E068012801D0012063E7AE48083848
:1034D000006820F0F800216940EAC100AA490839D3
:1034E000086037E0E06800B30120A8490860FEF7F3
:1034F000D9FE054606E0FEF7D5FE401B022801D99D
:10350000032047E7A04808380068C0F340000028BF
:10351000F1D09D480838006820F0F800216940EAA1
:10352000C10099490839086014E0002097490860F3
:10353000FEF7B8FE054606E0FEF7B4FE401B022883
:1035400001D9032026E7904808380068C0F34000FE
:103550000028F1D1207800F0080008282CD16069FB
:10356000A8B101208A490860FEF79CFE054606E0E6
:10357000FEF798FE401B022801D903200AE7824883
:103580006C300068C0F340000028F1D014E0002047
:103590007F490860FEF786FE054606E0FEF782FEDC
:1035A000401B022801D90320F4E677486C300068FC
:1035B000C0F340000028F1D1207800F00400042876
:1035C00070D1002770483830006800F0805090B902
:1035D00000BF002000906C483830006840F08050F8
:1035E0006949383108600846006800F08050009052
:1035F00000BF00BF01276748006800F48070B0B9C1
:103600006448006840F4807062490860FEF74AFE32
:10361000054606E0FEF746FE401B022801D90320BE
:10362000B8E65C48006800F480700028F2D000BF63
:10363000A068012808D154486830006840F00100B3
:103640005149683108601DE0A06805280DD14E4839
:103650006830006840F004004B4968310860084653
:10366000006840F0010008600CE0474868300068DE
:1036700020F001004449683108600846006820F0E5
:103680000400086000BFA068A8B1FEF70BFE054665
:1036900009E0FEF707FE401B41F28831884202D95B
:1036A000032077E626E0384868300068C0F3400021
:1036B0000028EED013E0FEF7F5FD054608E0FEF722
:1036C000F1FD401B41F28831884201D9032061E6B7
:1036D0002D4868300068C0F340000028EFD1012F6A
:1036E00007D129483830006820F080502649383109
:1036F000086000BFA069002845D02348006800F09A
:103700000C0008285DD0A069022845D100201F497F
:103710000866FEF7C7FD054606E0FEF7C3FD401B41
:10372000022801D9032035E6174808380068C0F39D
:1037300040600028F1D1D4E907010843616A40EAFA
:1037400081110122A06AC2EB500041EA00412C2005
:10375000005D41EA00600C49091F086001200B4927
:103760000866FEF79FFD054606E0FEF79BFD401B41
:10377000022801D903200DE6034808380068C0F389
:1037800040600028F1D049E008380240000047427C
:10379000800E474200700040002021490866FEF775
:1037A00081FD054606E0FEF77DFD401B022801D99C
:1037B0000320EFE51B480068C0F340600028F2D109
:1037C0002CE0A069012800D1E4E51648001D066838
:1037D000A069012820D006F48001E06981421BD154
:1037E00006F03F01206A814216D147F6C070304092
:1037F000616AB0EB811F0FD106F440310122A06A4B
:10380000C2EB5000B1EB004F06D106F070612C20E6
:10381000005DB1EB006F01D00120BBE50020B9E5F0
:103820000000474200380240042808D14FF0E02150
:10383000096941F004014FF0E022116107E04FF007
:10384000E021096921F004014FF0E0221161704785
:103850007047704710B504460CB9012010BD94F8AC
:103860003D0028B9002084F83C00204600F025F8EF
:10387000022084F83D00211D206802F039F8012063
:1038800084F8460000BF84F83E0001213F20015526
:10389000402001554120015500BF00BF012084F8A0
:1038A000420043200155442001554520015500BFE9
:1038B000012084F83D000020D0E77047014691F8D0
:1038C0003D00012801D001207047022081F83D0011
:1038D0000868C06840F001000B68D8601A4B08689F
:1038E00098421BD00868B0F1804F17D0174B08687A
:1038F000984213D0164B086898420FD0154B0868B1
:1039000098420BD0144B0868984207D0134B0868B4
:10391000984203D0124B086898420CD1086880681E
:1039200000F00702062A0CD00868006840F0010089
:103930000B68186005E00868006840F001000B683B
:1039400018600020C0E700000000014000040040B3
:1039500000080040000C004000040140004001400D
:1039600000180040704770B504462068C56820689C
:10397000066906F00200022819D105F002000228AB
:1039800015D1401F216808610120207720688069D7
:1039900000F0030018B12046FFF7E4FF05E02046E1
:1039A00000F097F8204600F095F80020207706F008
:1039B0000400042819D105F00400042815D1C043DF
:1039C00021680861022020772068806900F4407037
:1039D00018B12046FFF7C6FF05E0204600F079F851
:1039E000204600F077F80020207706F0080008282D
:1039F00019D105F00800082815D1C04321680861D5
:103A0000042020772068C06900F0030018B1204628
:103A1000FFF7A8FF05E0204600F05BF8204600F025
:103A200059F80020207706F01000102819D105F071
:103A30001000102815D1C0432168086108202077A4
:103A40002068C06900F4407018B12046FFF78AFF73
:103A500005E0204600F03DF8204600F03BF800204D
:103A6000207706F0010048B105F0010030B16FF099
:103A7000010021680861204600F02EF806F0800061
:103A8000802809D105F08000802805D1C043216835
:103A900008612046FFF7DCFE06F04000402809D10F
:103AA00005F04000402805D1C04321680861204648
:103AB00000F01EF806F02000202809D105F02000B3
:103AC000202805D1C043216808612046FFF7C1FEC8
:103AD00070BD70477047000010B504460349206868
:103AE000884201D1FFF7DCF910BD0000001400404E
:103AF0007047F8B504460E46174694F84200202851
:103B00002ED106B10FB90120F8BD0120206300209D
:103B100060633A463146204602F062FA0546EDB946
:103B2000206B012819D100BF002000902068006898
:103B3000009020684068009000BF00BF00BF00BF39
:103B400021680C3151E8001F41F0100021680C3150
:103B500041E80002002AF3D100E001252846D3E71E
:103B60000220D1E770B504460D4615492068884209
:103B700008D1144914A002F0E3FB80221149174830
:103B8000FFF7B7FF16492068884204D10120154984
:103B900008701549087015492068884207D11448F3
:103BA000017814A002F0CCFB0120134908701349DE
:103BB0002068884202D101201149087070BD0000C0
:103BC00000100140B0150020726563656976655F7D
:103BD0006275666665723A25730D0A00881A0020C0
:103BE00000440040940100202E000020004C0040C2
:103BF00030160020256300002F0000200014014033
:103C000030000020704700002DE9F84F044620687E
:103C100005682068C668206847694FF00009CA46F1
:103C200005F00F09B9F1000F0AD105F0200038B1F5
:103C300006F0200020B1204602F03EF8BDE8F88FE3
:103C4000B9F1000F7CD007F0010018B906F49070AC
:103C5000002875D005F0010030B106F4807018B16D
:103C6000606C40F00100606405F0040030B107F0C2
:103C7000010018B1606C40F00200606405F00200C1
:103C800030B107F0010018B1606C40F004006064CE
:103C900005F0080048B106F0200010B907F0010057
:103CA00018B1606C40F008006064606C002846D079
:103CB00005F0200028B106F0200010B1204601F0E8
:103CC000FBFF20684069C0F3801A606C00F00800B8
:103CD00010B9BAF1000F2DD0204601F094FF2068F2
:103CE000406900F04000402820D100BF00BF21689B
:103CF000143151E8001F21F040002168143141E8DF
:103D00000002002AF3D100BFE06B50B17748E16BAD
:103D10000865E06BFDF7C4FF88B1E06B016D884773
:103D20000DE02046FFF76EFF09E009E02046FFF7AF
:103D300069FF04E02046FFF765FF002060647DE72F
:103D4000206B012878D105F01000002874D006F00F
:103D500010000028FAD000BF002000902068006802
:103D6000009020684068009000BF00BF2068406954
:103D700000F04000402860D1E06B006840681FFA06
:103D800080F8B8F1000F56D0A08D404553DDA4F85F
:103D90002E80E06BC069B0F5807F43D000BF00BFCC
:103DA00021680C3151E8001F21F4807021680C312A
:103DB00041E80002002AF3D100BF00BF00BF216824
:103DC000143151E8001F21F001002168143141E84D
:103DD0000002002AF3D100BF00BF00BF21681431E8
:103DE00051E8001F21F040002168143141E8000231
:103DF000002AF3D100BF202084F842000020206375
:103E000000BF00BF21680C3151E8001F21F01000F5
:103E100021680C3141E80002002AF3D100BFE06BB9
:103E2000FDF7E8FE02206063A08DE28D801A81B26A
:103E30002046FFF797FE01E742E0A08DE18D401A92
:103E40001FFA80F8E08DD0B3B8F1000F37D000BF73
:103E500000BF21680C3151E8001F21F490702168E7
:103E60000C3141E80002002AF3D100BF00BF00BFBF
:103E70002168143151E8001F21F00100216814313C
:103E800041E80002002AF3D100BF202084F842005C
:103E90000020206300BF00BF21680C3151E8001FE3
:103EA00021F0100021680C3141E80002002AF3D112
:103EB00000BF0220606341462046FFF753FEBDE687
:103EC00005F0800030B106F0800018B1204602F005
:103ED000EBF8B3E605F0400030B106F0400018B151
:103EE000204601F0C6FEA9E600BFA7E6655A000815
:103EF00010B504460CB9012010BDA06900B100E066
:103F000000BF94F8410028B9002084F84000204602
:103F100000F02AF8242084F841002068C06820F4CA
:103F200000502168C860204601F044FF2068006905
:103F300020F49040216808612068406920F02A0040
:103F4000216848612068C06840F400502168C8605A
:103F500000206064202084F8410084F842000020A2
:103F6000606300BFC8E7000010B586B004461421A6
:103F700001A8FCF700FAE049206888427BD100BF25
:103F800000200090DD48006840F40020DB49086014
:103F90000846006800F40020009000BF00BF00BF8A
:103FA00000200090D5481038006840F00400D34944
:103FB000103908600846006800F00400009000BF57
:103FC00000BF4FF440600190022002900020039057
:103FD000032004900820059001A9C948FEF75AF86B
:103FE000C848C9490860400548600021C64881604A
:103FF000C1604FF480610161002141618161C16153
:104000004FF48031016200214162FDF77DFF08B16C
:10401000FDF7EAFA00BFBC48E063846300BFB9481B
:104020003030BA4908604FF0006048604021B7481E
:1040300081600021C1604FF4806101610021416114
:104040008161C1614FF48031016200214162FDF75D
:104050005BFF08B1FDF7C8FA00BFAC48A0638463FA
:1040600000BF002205213420FEF7DCFF3420FEF7DC
:10407000C5FF3FE1FFE7A649206888425BD100BF4A
:10408000002000909D48001D006840F010009B49F2
:10409000091D08600846006800F01000009000BF8D
:1040A00000BF00BF0020009094481038006840F026
:1040B00001009249103908600846006800F00100CC
:1040C000009000BF00BF4FF4C0600190022002903A
:1040D00000200390032004900720059001A98D483B
:1040E000FDF7D8FF8C488D4908604FF000604860AC
:1040F00000218A488160C1604FF480610161002124
:1041000041618161C1614FF400310162002141626E
:10411000FDF7FAFE08B1FDF767FA00BF7F48E063DC
:10412000846300BF002205212520FEF77BFF2520A8
:10413000FEF764FFDEE07A49206888427CD100BF48
:10414000002000906D48006840F400306B49086022
:104150000846006800F40030009000BF00BF00BFB8
:104160000020009065481038006840F0080063495E
:10417000103908600846006800F00800009000BF91
:1041800000BF6020019002200290002003900320D5
:1041900004900720059001A96248FDF77BFF59486C
:1041A0004830614908604FF00060486000215E4877
:1041B0008160C1604FF480610161002141618161D2
:1041C000C1614FF48031016200214162FDF79CFE24
:1041D00008B1FDF709FA00BF5348E063846300BFEC
:1041E00048486030514908604FF000604860402105
:1041F0004E4881600021C1604FF48061016100215F
:1042000041618161C1614FF48031016200214162ED
:10421000FDF77AFE08B1FDF7E7F900BF4348A06358
:10422000846300BF002205212620FEF7FBFE262026
:10423000FEF7E4FE5EE0FFE73D492068884259D181
:1042400000BF002000902D48001D006840F02000B5
:104250002A49091D08600846006800F02000009007
:1042600000BF00BF00BF0020009024481038006845
:1042700040F004002149103908600846006800F049
:104280000400009000BF00BFC020019002200290F7
:1042900000200390032004900820059001A91848ED
:1042A000FDF7F8FE1C481838224908608005486070
:1042B000002120488160C1604FF4806101610021CC
:1042C00041618161C1614FF440310162002141626D
:1042D000FDF71AFE08B1FDF787F900BF1548E06346
:1042E000846300BF002205214720FEF79BFE472084
:1042F000FEF784FE06B010BD004C0040403802407E
:104300000008024040600240601B0020C01B0020EB
:10431000001001400000024040640240201C0020C8
:1043200000440040000C0240801C0020E01C0020E3
:1043300000140140401D0020704770472DE9F84FE0
:1043400004460E46174699464FF0000A94F841007D
:10435000202850D106B117B90120BDE8F88F002000
:104360006064212084F84100FDF79CFF8246A78409
:10437000E784A068B0F5805F04D1206910B90025FA
:10438000B04602E035464FF000081EE053460022DA
:1043900080212046CDF8009001F0B6FE20B120200B
:1043A00084F841000320D8E745B9B8F80000C0F30D
:1043B00008002168486008F1020803E028782168B5
:1043C00048606D1CE08C401EE084E08C0028DDD14C
:1043D0005346002240212046CDF8009001F094FE83
:1043E00020B1202084F841000320B6E7202084F883
:1043F00041000020B1E70220AFE70000F7B5044616
:10440000154694F84100202836D1019800B10DB925
:104410000120FEBD01982062A584E584002060642F
:10442000212084F841001548A16BC8631448A16B92
:1044300008641448A16BC8640020A16B086501AE34
:1044400023681A1D31682B46A06BFDF7D3FD6FF072
:1044500040002168086000BF00BF2168143151E8A6
:10446000001F41F080002168143141E80002002A59
:10447000F3D100BF0020CCE70220CAE7A15B00080F
:10448000F95B0008795A00087047704700BFFEE7E3
:10449000014608684069C0F38020B0B16FF48060C5
:1044A0000A68506100200863202081F83D00002048
:1044B00081F83E00086C40F00400086400BF002052
:1044C00081F83C0000BF012070470020FCE700009D
:1044D0002DE9F84304460D4690461E46E76A2068DB
:1044E000006840F4806021680860082F04D0012F24
:1044F00002D017F5803F06D12068006840F4807034
:104500002168086008E0206B112805D12068006848
:1045100040F4807021680860434600224FF001118A
:104520002046009600F023FA60B12068006800F48D
:104530008070B0F5807F02D14FF4007020640320BA
:10454000BDE8F8832069B0F5804F05D1E8B240F0AE
:1045500001002168086149E005F44070F02141EA5A
:10456000E01021680861334642462649204600F0A3
:104570005DFA08B10120E3E7E8B22168086133463B
:1045800042462049891F204600F050FA08B1012018
:10459000D6E700BF002000902068406900902068A6
:1045A0008069009000BF00BF2068006840F4807000
:1045B00021680860434600224FF001112046009612
:1045C00000F0D5F958B12068006800F48070B0F5AB
:1045D000807F02D14FF4007020640320B0E705F41F
:1045E0004070F12141EAE0102168086133464246FB
:1045F0000449891F204600F019FA08B101209FE7FD
:1046000000209DE7080001002DE9F84304460D460F
:1046100017469846E66A082E04D0012E02D016F5F9
:10462000803F06D12068006840F4807021680860EF
:1046300008E0206B122805D12068006840F48070E3
:10464000216808603B4600224FF001112046CDF85A
:10465000008000F08CF960B12068006800F4807080
:10466000B0F5807F02D14FF4007020640320BDE8D4
:10467000F8832069B0F5804F04D105F0FE00216871
:10468000086112E005F44070F02141EAE010216871
:10469000086143463A460B49204600F0C7F908B185
:1046A0000120E4E7E8B22168086143463A4605493B
:1046B000891F204600F0BAF908B10120D7E7002091
:1046C000D5E70000080001002DE9F84304460F4635
:1046D00015469946DDE908862068006840F4806048
:1046E000216808602068006840F4807021680860D4
:1046F000434600224FF001112046009600F037F9A2
:1047000060B12068006800F48070B0F5807F02D14D
:104710004FF4007020640320BDE8F88307F0FE002A
:1047200021680861334642463E49204600F07EF942
:1047300008B10120F0E700BF002000902068406928
:10474000009020688069009000BF00BF324641465B
:10475000204600F02DFA50B1206C042805D12068C5
:10476000006840F40070216808600120D4E7B9F1C6
:10477000010F03D1E8B22168086117E0C5F30720F3
:104780002168086132464146204600F011FA50B1D6
:10479000206C042805D12068006840F4007021686E
:1047A00008600120B8E7E8B2216808613246414656
:1047B000204600F0FDF950B1206C042805D1206896
:1047C000006840F40070216808600120A4E72068B8
:1047D000006840F4807021680860434600224FF072
:1047E00001112046009600F0C2F858B12068006818
:1047F00000F48070B0F5807F02D14FF40070206427
:10480000032089E7F8B240F00100216808613346CF
:1048100042460449204600F009F908B101207BE72F
:10482000002079E7020001002DE9F843044688469C
:1048300015469946DDE908672068006840F48070F5
:1048400021680860334600224FF00111204600978E
:1048500000F08DF860B12068006800F48070B0F559
:10486000807F02D14FF4007020640320BDE8F883FC
:1048700008F0FE00216808613B4632462149204687
:1048800000F0D4F808B10120F0E700BF002000904C
:1048900020684069009020688069009000BF00BFD8
:1048A0003A463146204600F083F950B1206C042886
:1048B00005D12068006840F400702168086001207C
:1048C000D4E7B9F1010F03D1E8B22168086117E01C
:1048D000C5F30720216808613A463146204600F0BA
:1048E00067F950B1206C042805D12068006840F4B5
:1048F0000070216808600120B8E7E8B2216808610B
:104900000020B3E70200010070B504460D461646CC
:1049100025E02046FFF7BCFD08B1012070BD681CF2
:10492000E8B1FDF7BFFC801BA84200D8BDB92068E4
:104930004069C0F3800090B900202063202084F8F3
:104940003D00002084F83E00206C40F020002064F0
:1049500000BF002084F83C0000BF0120DEE7206893
:104960004069C0F380000028D3D00020D6E72DE9AD
:10497000F04104460D4617461E46DDF8188038E023
:10498000701CA8B3FDF78EFCA0EB0800B04200D865
:1049900076BBC5F3074001280AD120684069A9B257
:1049A0000840A9B2884201D101200BE0002009E0B3
:1049B00020688069A9B20840A9B2884201D10120CB
:1049C00000E00020B84214D100202063202084F8A9
:1049D0003D00002084F83E00206C40F02000206460
:1049E00000BF002084F83C0000BF0120BDE8F0813A
:1049F000FFE7C5F3074001280AD120684069A9B242
:104A00000840A9B2884201D101200BE0002009E052
:104A100020688069A9B20840A9B2884201D101206A
:104A200000E00020B842ABD00020DFE72DE9F041E4
:104A300004460D4616461F4658E020684069C0F3FC
:104A40008020E8B12068006840F4007021680860A8
:104A50006FF480602168486100202063202084F882
:104A60003D00002084F83E00206C40F004002064EB
:104A700000BF002084F83C0000BF0120BDE8F081A9
:104A8000701C90B3FDF70EFCC01BB04200D866BB93
:104A9000C5F3074001280AD120684069A9B208403F
:104AA000A9B2884201D101200BE0002009E0206872
:104AB0008069A9B20840A9B2884201D1012000E072
:104AC000002090B900202063202084F83D000020C1
:104AD00084F83E00206C40F02000206400BF0020DD
:104AE00084F83C0000BF0120C8E7FFE7C5F307409A
:104AF00001280AD120684069A9B20840A9B28842B9
:104B000001D101200BE0002009E020688069A9B2F2
:104B10000840A9B2884201D1012000E0002000280D
:104B20008BD00020AAE770B504460D46164637E044
:104B300020684069C0F30010A0B16FF01000216838
:104B4000486100202063202084F83D00002084F884
:104B50003E00206C206400BF002084F83C0000BFB1
:104B6000012070BDFDF79EFB801BA84200D8BDB997
:104B700020684069C0F3801090B900202063202095
:104B800084F83D00002084F83E00206C40F02000B6
:104B9000206400BF002084F83C0000BF0120E0E753
:104BA00020684069C0F380100028C1D00020D8E7F9
:104BB00070B504460D46164625E02046FFF768FC12
:104BC00008B1012070BD681CE8B1FDF76BFB801BCC
:104BD000A84200D8BDB920684069C0F3C01090B9A0
:104BE00000202063202084F83D00002084F83E004F
:104BF000206C40F02000206400BF002084F83C00BE
:104C000000BF0120DEE720684069C0F3C010002823
:104C1000D3D00020D6E705F0ADFF07F03AFE0446FA
:104C200000BF05F0C9FF06F07DF80A34204607F002
:104C300016FEF6E770B52DED088B05460C462046AE
:104C4000FBF780FD41EC1B0B9FED0F0B53EC102B82
:104C5000FBF797FC41EC190B2846FBF773FD41EC81
:104C60001B0B9FED0B0B53EC102BFBF78AFC41EC5D
:104C70001A0B53EC192BFBF7DDFB41EC180BFBF780
:104C800072FDBDEC088B70BD666666666666EE3FBB
:104C90009A9999999999A93F10B500F09BF8C0216C
:104CA000022006F08DF80021032006F089F800218B
:104CB000042006F085F80021052006F081F8002187
:104CC000062006F07DF80F21082006F079F8032170
:104CD000092006F075F827210A2006F071F8242132
:104CE0000C2006F06DF824210D2006F069F87F21D4
:104CF000102006F065F802A001F022FB10BD0000B4
:104D00007375636365737366756C0D0A000000004C
:104D10003EB5002443E000BF80212B48FDF7B4FAE4
:104D20000128F9D06946072006F076F89DF80000C2
:104D30008007800B9DF8011040EA01209DF80210C9
:104D40000843224941F824009DF803008007800BA6
:104D50009DF8041040EA01209DF8051008431C4905
:104D600041F824000846D0F8B01F184850F8240035
:104D7000814205D9154850F824001549C1F8B00FF3
:104D80001348D0F8B41F114850F82400814205D2CE
:104D90000E4850F824000E49C1F8B40F641C0C48AA
:104DA000D0F8C00FA042B6D80948D0F8C00F401EB6
:104DB000064951F8200002900548D0F8A80F0A30A3
:104DC0000349C1F8A80F3EBD001402408809002025
:104DD000B801002010B54021092005F0F1FF402165
:104DE000092005F0EDFF10BDFFF756FF07F051FD5C
:104DF00000BF06F0C9F840F6B83007F021FDF8E72B
:104E000010B52DED0C8B8EB00446B7EE000AF0EE17
:104E1000409A9FED7D0AB0EE408A9FED7B0AF0EE4E
:104E2000408A9FED790AB0EE409A03A804A905AB29
:104E300006AACDE900100AA90CA804F063F940B154
:104E400072A001F07DFA4FF0FF300EB0BDEC0C8B7C
:104E500010BDBDF8100000F4807000287ED09DEDDC
:104E6000060AB8EEC00ADFED6B0A80EE201AF0EEFB
:104E7000419A9DED070AB8EEC00ADFED660A80EEA2
:104E8000201AB0EE418A9DED080AB8EEC00ADFEDA7
:104E9000610A80EE201AF0EE418A9DED090AB8EE13
:104EA000C00ADFED5C0A80EE201AB0EE419AB8EE3F
:104EB000000A28EE000A20EE090AF0EE000A69EE68
:104EC000A00A00EEA80A10EE101A0846FBF76AFCCA
:104ED00041EC1C0BB0EE4C0AF0EE6C0A01F090FABB
:104EE000B0EE40BAF0EE60BA9FED4B0B53EC102BD6
:104EF00051EC1B0BFBF745FB41EC1A0BFBF77EFC5F
:104F00006061B8EE000A28EE000A20EE080AF0EE12
:104F1000000A68EEA00A00EEE80AF7EE000A30EE9A
:104F2000200A10EE101A0846FBF73CFC41EC1C0B63
:104F3000B0EE000A28EE800A20EE090AF0EE000A20
:104F400069EEA00A00EE880A10EE101A0846FBF778
:104F500029FC41EC1D0BB0EE4C1A00E051E0F0EEE4
:104F60006C1AB0EE4D0AF0EE6D0A01F065FDB0EE80
:104F700040BAF0EE60BA9FED280B53EC102B51ECC9
:104F80001B0BFBF7FEFA41EC1A0BFBF737FCA06199
:104F900029EEA90A08EE080A08EEE80A09EE490A0D
:104FA00010EE101A0846FBF7FDFB41EC1C0B29EE36
:104FB000890A08EE280AF0EE000A20EE200A10EE18
:104FC000101A0846FBF7EEFB41EC1D0BB0EE4C1A35
:104FD000F0EE6C1AB0EE4D0AF0EE6D0A01F02CFD09
:104FE000B0EE40BAF0EE60BA9FED0B0B53EC102B15
:104FF00051EC1B0BFBF7C5FA41EC1A0BFBF7FEFB60
:10500000E061002021E70000000000006E6264659E
:105010000D0A00000000804E6666666666A64C407B
:1050200010B500216B2000F0ABF80721192000F02B
:10503000A7F806211A2000F0A3F818211B2000F081
:105040009FF801211C2000F09BF8002010BD7CB5CA
:1050500004466B4606223B21D02006F04DFE054655
:10506000BDB99DF801009DF8001040EA012000B292
:10507000E0809DF803009DF8021040EA012000B294
:1050800020819DF805009DF8041040EA012000B23F
:10509000608128467CBD7CB504466B4606224321D0
:1050A000D02006F029FE0546BDB99DF801009DF807
:1050B000001040EA012000B220809DF803009DF816
:1050C000021040EA012000B260809DF805009DF8C2
:1050D000041040EA012000B2A08028467CBD0000F8
:1050E00015A001F02DF914E017A001F029F900BF77
:1050F000BFF34F8F1A48006800F4E0601949084375
:10510000001D17490860BFF34F8F00BF00BF00BFED
:10511000FDE706F0D5FA0028E6D113A001F010F95A
:1051200007F0B7FB044600BF03F0E4FF323420462B
:1051300007F095FBF8E700006D70755F646D705FB8
:10514000696E69740D0A00006D70755F646D705F43
:10515000696E697420616761696E0D0A0000000064
:105160000CED00E00000FA056D70755F646D705F16
:10517000696E697420737563636573730D0A00004B
:105180007CB504460D468DF804408DF805504FF06F
:10519000FF30022301AAD02100900448FDF7F6FA5F
:1051A00008B101207CBD0020FCE7000008130020AE
:1051B0001E2207490748FCF743FC07F06AFB044638
:1051C00000BF07F099FAC834204607F048FBF8E71B
:1051D000501E0020601200201FB50020009001909A
:1051E000029003901548164908604FF480304860DB
:1051F000002113488160016101210176002180F8BE
:105200002010C1620F4981620021C1600121C1618A
:1052100080F830104161FCF771FB08B1FCF7E4F94C
:105220000720009001200190002002906946044868
:10523000FCF7EAF908B1FCF7D7F91FBD00200140DF
:10524000601200200100000F08B500BF0020009090
:105250002A48006840F48000284908600846006831
:1052600000F48000009000BF00BF00BF002000904D
:105270000846006840F4001008600846006800F422
:105280000010009000BF00BF002205210D20FDF797
:10529000C9FE0D20FDF7B2FE002205210F20FDF70B
:1052A000C1FE0F20FDF7AAFE002205211020FDF708
:1052B000B9FE1020FDF7A2FE002205211120FDF706
:1052C000B1FE1120FDF79AFE002205213820FDF7DE
:1052D000A9FE3820FDF792FE002205213920FDF7B6
:1052E000A1FE3920FDF78AFE002205213A20FDF7B4
:1052F00099FE3A20FDF782FE08BD000030380240DA
:1053000010B5264B00220121254807F071FB2549E5
:10531000086064212348006807F0C8FB224A002186
:10532000224807F009FB22490860224A002122484E
:1053300007F002FB21490860214A0021214807F0BB
:10534000FBFA21490860214A0021214807F0F4FABC
:1053500020490860204A0021204807F0EDFA204942
:105360000860204A0021204807F0E6FA1F4908603B
:105370001F4A00211F4807F0DFFA1F4908601F4A33
:1053800000211F4807F0D8FA1E4908601E4A002174
:105390001E4807F0D1FA1E49086010BD78EE0008DB
:1053A000D95900082800002034ED0008ED57000806
:1053B0000400002058ED0008E94D00080800002016
:1053C0007CED0008E15000080C000020A0ED000872
:1053D0002D63000810000020C4ED0008B151000842
:1053E00014000020E8ED0008174C00081800002009
:1053F0000CEE0008531400081C00002030EE0008DA
:10540000EF1500082000002054EE0008058B00086E
:105410002400002000B587B0142102A8FAF7ABFFE2
:1054200000BF002001904F48006840F010004D4937
:1054300008600846006800F01000019000BF00BF3F
:1054400000BF002001900846006840F0200008607E
:105450000846006800F02000019000BF00BF00BFB8
:10546000002001900846006840F08000086008466F
:10547000006800F08000019000BF00BF00BF002066
:1054800001900846006840F0010008600846006886
:1054900000F00100019000BF00BF00BF002001909C
:1054A0000846006840F0020008600846006800F006
:1054B0000200019000BF00BF00BF0020019008461D
:1054C000006840F0040008600846006800F004002E
:1054D000019000BF00BF00BF002001900846006897
:1054E00040F0080008600846006800F008000190DD
:1054F00000BF00BF01224FF4C0611B48FCF7CCFE87
:10550000012211461948FCF7C7FE1C20029000201A
:1055100003900120049002A91548FCF7BBFD8020F0
:10552000029000200390049002A90F48FCF7B2FDFE
:105530004FF4C06002900120039000200490059079
:1055400002A90948FCF7A6FD012002900390002063
:1055500004900220059002A90448FCF79BFD07B0C7
:1055600000BD000030380240001402400004024038
:105570000010024010B50B480B4908600B4848600A
:10558000002109488160C1604FF480410161002120
:1055900041618161C1610162FCF78AFE08B1FCF7DB
:1055A00023F810BD0054004008130020A08601001D
:1055B00010B50B480B4908600B48486000210948AA
:1055C0008160C1604FF480410161002141618161CE
:1055D000C1610162FCF76CFE08B1FCF705F810BD73
:1055E000005C00405C130020801A060010B51148D2
:1055F000114908604FF4E130486000210E48816095
:10560000C16001610C21416100218161C161FEF72E
:105610006FFC08B1FBF7E8FF282208490648FEF7AF
:1056200068FA07480068006820F008000449096823
:10563000086010BD004C0040401A002030160020C9
:10564000601B002010B51148114908604FF4E1308B
:10565000486000210E488160C16001610C214161F8
:1056600000218161C161FEF743FC08B1FBF7BCFF7B
:10567000802208490648FEF73CFA0748006800689F
:1056800020F0080004490968086010BD00100140BE
:10569000881A0020B0150020201C002010B51248E8
:1056A000124908604FF4E130486000210F488160E2
:1056B000C16001610C21416100218161C161FEF77E
:1056C00017FC08B1FBF790FF4FF400720849074838
:1056D000FEF70FFA07480068006820F00800054947
:1056E0000968086010BD000000440040D01A002086
:1056F000B0130020801C002010B512481249086029
:105700004FF41650486000210F488160C16001616C
:105710000C21416100218161C161FEF7E9FB08B103
:10572000FBF762FF4FF47A7208490748FEF7E1F988
:1057300007480068006820F008000549096808600B
:1057400010BD000000140140181B00205816002056
:10575000401D002000BFFEE700BFFEE710B50D486A
:1057600090F8AC0F012813D10A48D0F8A80F64288C
:105770000EDA0848D0F8A80F0749C8600548D0F8E5
:10578000A00F886008468268C16804A000F0D8FDB8
:1057900010BD0000B8010020241E00206469735F62
:1057A00068723A256420202C6469735F73706F32CD
:1057B0003A25640D0A00000070B50346106841F8F0
:1057C00020301068401C142590FBF5F605FB1600F0
:1057D00010600024002003E051F820502C44401CAD
:1057E0001428F9DB142094FBF0F070BD00BF4FF4D7
:1057F0007A7007F025F8FAE710B54FF0E02000695D
:1058000008F0E4FF012801D008F02EFC10BD0000D4
:1058100000B593B0302107A8FAF7ADFD142102A816
:10582000FAF7A9FD00BF002001902448006840F06D
:105830008050224908600846006800F080500190BE
:1058400000BF00BF00BF002001901D48006840F469
:1058500080401B4908600846006800F480400190C1
:1058600000BF00BF012007900004089002200D90A7
:1058700041050E9104210F91A8211091022111914F
:105880000421129107A8FDF781FD08B1FBF7ACFEDA
:105890000F20029002200390002004904FF4A050AB
:1058A00005904FF480500690052102A8FDF70CFCEE
:1058B00008B1FBF799FE13B000BD0000403802406C
:1058C000007000400548006840F47000034908601B
:1058D0004FF00060014980390860704788ED00E0B2
:1058E00010B50248FEF73FF810BD0000A01D0020D3
:1058F00010B502682D4B98420ED0B0F1804F0BD0FE
:105900002B4B984208D02B4B984205D02A4B9842FB
:1059100002D02A4B984203D122F070024B681A43FE
:10592000224B984220D0B0F1804F1DD0204B98429E
:105930001AD0204B984217D01F4B984214D01F4BBF
:10594000984211D01E4B98420ED01E4B98420BD05D
:105950001D4B984208D01D4B984205D01C4B9842D5
:1059600002D01C4B984203D122F44072CB681A43F8
:1059700022F080034C6943EA040202608B68C36230
:105980000B688362094B984202D00C4B984201D1BC
:105990000B69036301234361036903F001031BB136
:1059A000036923F00103036110BD00000000014002
:1059B0000004004000080040000C004000040140CA
:1059C00000400140004401400048014000180040F0
:1059D000001C0040002000400D49897901290CD1AC
:1059E0000C490978491C0B4A117011460978642941
:1059F00003DB00211170064A91710549097A0129DA
:105A000004D105490978491C034A11707047000008
:105A1000181E00202C0000208F11002070B50546B4
:105A2000284607F047FE044614B1D4E90010884721
:105A300070BD000010B50848FEF7E6F828220749B7
:105A40000548FEF756F806480068006820F0080090
:105A500003490968086010BD401A00203016002074
:105A6000601B002070B50546AC6B0020E085E0842B
:105A70002046FEF7C7F870BD70B506460025B46B2A
:105A800020684069C0F3C01594F84100212805D171
:105A900025B10020E084204600F0FBF82068406932
:105AA000C0F3801594F84200222805D125B10020CA
:105AB000E085204600F0A7F8606C40F010006064BC
:105AC0002046FEF79FF870BD70B50546AC6B2868A0
:105AD000006800F48070002842D1E08500BF00BF5C
